:020000001429C1
:10000600293083120313FD00FD0B072800000800AA
:06001600000000000800DC
:10001C00123083120313FC00DA30FD00FD0B1428A0
:08002C00FC0B14280000080081
:1000340083120313D41B2028881321288817541BE8
:100044002528081326280817D41A2A2888122B28AA
:100054008816541A2F280812302808164D183428E8
:1000640009153528091109140B200910D4193C2845
:1000740088133D2888175419412808134228081763
:10008400D418462888124728881654184B28081272
:100094004C2808164D18502809155128091109141F
:1000A4000B2009104D1C58280E2059280320080045
:0E00B400831203134C088A004B0882000800D8
:1000C200831203134D105308D4001A204D14080054
:1000D2007B28803083120313CF008E28C030CF00DC
:1000E2008E289430CF008E28D430CF008E288030D6
:1000F200CF008E28831203134F08013A03196A288E
:100102004F08023A03196F284F08033A031972285D
:100112004F08043A0319752878285003F0004F0855
:10012200F0077008CF007008D4001A204D10D201D9
:1001320052085107840000080319A72852085107E2
:1001420084000008D3006120D20A99284D140800C7
:100152008316031309100911081288120813881351
:1001620083120910091188130813881208120E202D
:100172000E200E208816081609140B2009100E20D6
:1001820009140B2009100E2009140B2009100E204F
:10019200081209140B2009100E2009140B20091053
:1001A2008812881709140B2009100E2088130816CC
:1001B20009140B200910081209140B2009100E2033
:1001C20009140B200910081609140B2009100E201F
:1001D200081209140B200910881708178816081628
:0C01E20009140B2009100E204D14080019
:1001EE00073083120313FB005830FC005930FD001A
:1001FE00FD0BFF28FC0BFF28FB0BFF280000000067
:02020E000800E6
:100210005A208A110A128000840ACB0A0319CC0AD8
:08022000F003031D082908008A
:10022800B0210730831603139F0007309C00890113
:100238008910A9200130D4001A200C30D4001A20CB
:100248000130CF000130D0004030D10069200230A9
:10025800CF000530D0003630D10069201A30FB00BD
:100268005E30FC006E30FD00FD0B3829FC0B382990
:10027800FB0B382900000130D4001A200130CF00D0
:100288000630D0002830D10069200230CF00063077
:10029800D0002030D10069201A30FB005E30FC000D
:1002A8006E30FD00FD0B5629FC0B5629FB0B562919
:1002B8000000CE0104304E02031868291C30D40017
:1002C8001A20F720CE0A5E29CE0108304E02031804
:1002D80073291830D4001A20F720CE0A6929CE01D4
:1002E80008304E0203187E291C30D4001A20F7204B
:0802F800CE0A742968297F2950
:10036000203084002B3083120313F0008530CB0043
:080370000130CC000821080057
:10030A006534783461346D3470346C346534003457
:10031A004C3443344434203449346E3474346534B0
:0C032A007234663461346334653400348E
:10033600503472346F346A34653463347434203420
:040346003734003414
:10034A00573465346C3463346F346D346534203417
:06035A0074346F3400341E
:02400E004A2F37
:00000001FF
