:02000000BD2A17
:0C000600000000000000000000000800E6
:10001200243083120313FC00B530FD00FD0B0F28C2
:0A002200FC0B0F280000000008008E
:0E002C00533083120313FD00FD0B1A28080049
:10003A0083160313A51B24288312881326288312E8
:10004A0088178316251B2C28831208132E2883123F
:10005A0008178316A51A34288312881236288312A1
:10006A0088168316251A3C28831208123E28831202
:10007A0008165E1842280915432809110914032095
:10008A0009108316A5194C28831288134E28831247
:10009A0088178316251954288312081356288312A1
:1000AA0008178316A5185C28831288125E28831203
:1000BA008816831625186428831208126628831264
:1000CA0008165E186A2809156B28091109140320F5
:0E00DA0009105E1C72280920732816200800E9
:0E00E8008312031354088A0053088200080094
:1000F60083160313141989281F301105F10071089E
:10010600003A031D89280130F0008A28F001080012
:0E0116008312031354088A0053088200080065
:10012400831203135E1083162408A5001D205E1499
:020134000800C1
:10013600831203138C11200893004F08EB0050081C
:10014600EC005108ED005208EE008316141DD2286B
:1001560083124F085004510452040319D1286B0826
:100166006C046D046E04031DC9286A0884000430FB
:100176008000840A6808D3006908D4008B208A119D
:100186000A12013083120313F0000B290130EB022F
:10019600031CEC02031CED02031CEE02A8288312CA
:1001A6004F08EB005008EC005108ED005208EE0035
:1001B6008C1903294F0850045104520403190229CB
:1001C6006B086C046D046E04031DFA286A0884002B
:1001D60004308000840A6808D3006908D4008B20A4
:1001E6008A110A12013083120313F0000B29013021
:1001F600EB02031CEC02031CED02031CEE02DB28DF
:100206008316111B0829F0010B2911150230F00085
:020216000800DE
:10021800831603130910091108128812081388138A
:10022800831209100911881308138812081209206B
:100238000920092088160816091403200910092026
:1002480009140320091009200914032009100920A2
:1002580008120914032009100920091403200910A1
:100268008812881709140320091009208813081612
:100278000914032009100812091403200910092081
:10028800091403200910081609140320091009206D
:100298000812091403200910881708178816081669
:0C02A80009140320091009205E1408004E
:1002B4007B3083120313E5000030E6000030E700D2
:1002C40000305A30E2000230E3000030E400003035
:1002D400FF30D800FF30D9000030DA000030D530CC
:1002E400D5000130D6002130D70000309B30DB0030
:1002F4000030DC002030DD0000308F30DF000130C2
:10030400E0000030E1000030831614139413071644
:0A03140087153830831294000800AA
:08031E008316031311150800FA
:10032600A529803083120313EB00B829C030EB00F7
:10033600B8299430EB00B829D430EB00B8298030C6
:10034600EB00B829831203136B08013A03199429A9
:100356006B08023A031999296B08033A03199C2979
:100366006B08043A03199F29A2296C03F0006B0855
:10037600F0077008EB0070088316A5001D205E10BC
:10038600EE016E086D07840000080319D3296E0874
:100396006D07840000088316A4009220EE0AC42983
:0403A6005E140800D9
:1003AA00831203134F08EC005008ED005108EE00C9
:1003BA005208EF008C118316911583128C19092AA1
:1003CA004F085004510452040319082A6C086D049A
:1003DA006E046F04031DFE296A088400033080003E
:1003EA00840A6808D3006908D4008B208A110A128B
:1003FA00092A013083120313EC02031CED02031CC9
:10040A00EE02031CEF02E229831203131308EB0026
:10041A002108003A031D142A83169116162A8316F8
:10042A00911283128C118316111683124F08EC0055
:10043A005008ED005108EE005208EF008C19492AC5
:10044A004F085004510452040319482A6C086D04D9
:10045A006E046F04031D3E2A6A088400033080007C
:10046A00840A6808D3006908D4008B208A110A120A
:10047A00492A013083120313EC02031CED02031C08
:10048A00EE02031CEF02232A831203136B08F00007
:02049A00080058
:10049C0074208A110A128000840AD30A0319D40A20
:0804AC00F003031D4E2A0800B5
:1004B400831203134F088316A00083125008831677
:1004C400A100831251088316A200831252088316D6
:1004D400A3008312EB01EC016C08123C031D742A87
:1004E4006B088E3C031C802A7B20700803197B2A2E
:1004F400802A8312EB0A0319EC0A6E2A8312123043
:100504006C02031D872A8F306B02031C8C2A7B30FC
:10051400F000BC2A831611148316111CBB2A831203
:100524004F085004510452040319BA2A83162008B0
:10053400210422042304031DB12A83126A088400BF
:1005440005308000840A6808D3006908D4008B2031
:100554008A110A12013083120313F000BC2A0130FD
:100564008316A002031CA102031CA202031CA30203
:060574008E2AF0010800D0
:10057A0048230730831603139F0007309C00890124
:10058A0089100C2101308316A5001D200C3083161A
:10059A00A5001D200130EB000130EC002F30ED00EA
:1005AA0093210230EB000130EC002230ED00932160
:1005BA007F30FB00D430FC003130FD00FD0BE32A14
:1005CA00FC0BE32AFB0BE32A000000000130831630
:1005DA00A5001D200130EB000130EC004730ED0092
:1005EA0093210230EB000130EC003A30ED00932108
:1005FA003230831693005A215A2283120313A1011F
:10060A00D5210230A0009B20AA3083120313A00038
:08061A009B208F210F2B102BF8
:1006900022308400313083120313F0001630D3006F
:0806A0000330D4004E220800D3
:10062C0043346F346D347034613473347334203428
:0A063C00643465346D346F3400340B
:10064600573465346C3463346F346D346534203418
:0606560074346F3400341F
:10065C004934323443342034523465346134643494
:0A066C0069346E34673473340034CF
:10067600543465347334743469346E3467340034F6
:0806860000340034003400349C
:02400E004A2F37
:00000001FF
